{
  "address": "0x04F1e772E19234aCF03A8A9BC72d0308AAaFEB07",
  "abi": [
    {
      "inputs": [
        {
          "internalType": "address",
          "name": "_DAI",
          "type": "address"
        },
        {
          "internalType": "address",
          "name": "_WETH",
          "type": "address"
        },
        {
          "internalType": "string",
          "name": "_URI",
          "type": "string"
        }
      ],
      "stateMutability": "nonpayable",
      "type": "constructor"
    },
    {
      "anonymous": false,
      "inputs": [
        {
          "indexed": true,
          "internalType": "address",
          "name": "owner",
          "type": "address"
        },
        {
          "indexed": true,
          "internalType": "address",
          "name": "approved",
          "type": "address"
        },
        {
          "indexed": true,
          "internalType": "uint256",
          "name": "tokenId",
          "type": "uint256"
        }
      ],
      "name": "Approval",
      "type": "event"
    },
    {
      "anonymous": false,
      "inputs": [
        {
          "indexed": true,
          "internalType": "address",
          "name": "owner",
          "type": "address"
        },
        {
          "indexed": true,
          "internalType": "address",
          "name": "operator",
          "type": "address"
        },
        {
          "indexed": false,
          "internalType": "bool",
          "name": "approved",
          "type": "bool"
        }
      ],
      "name": "ApprovalForAll",
      "type": "event"
    },
    {
      "anonymous": false,
      "inputs": [
        {
          "indexed": true,
          "internalType": "address",
          "name": "recipient",
          "type": "address"
        }
      ],
      "name": "FaucetDrained",
      "type": "event"
    },
    {
      "anonymous": false,
      "inputs": [
        {
          "indexed": true,
          "internalType": "address",
          "name": "recipient",
          "type": "address"
        }
      ],
      "name": "FaucetDripped",
      "type": "event"
    },
    {
      "anonymous": false,
      "inputs": [
        {
          "indexed": true,
          "internalType": "address",
          "name": "operator",
          "type": "address"
        },
        {
          "indexed": false,
          "internalType": "bool",
          "name": "status",
          "type": "bool"
        }
      ],
      "name": "OperatorUpdated",
      "type": "event"
    },
    {
      "anonymous": false,
      "inputs": [
        {
          "indexed": true,
          "internalType": "address",
          "name": "operator",
          "type": "address"
        },
        {
          "indexed": false,
          "internalType": "bool",
          "name": "status",
          "type": "bool"
        }
      ],
      "name": "SuperOperatorUpdated",
      "type": "event"
    },
    {
      "anonymous": false,
      "inputs": [
        {
          "indexed": true,
          "internalType": "address",
          "name": "from",
          "type": "address"
        },
        {
          "indexed": true,
          "internalType": "address",
          "name": "to",
          "type": "address"
        },
        {
          "indexed": true,
          "internalType": "uint256",
          "name": "tokenId",
          "type": "uint256"
        }
      ],
      "name": "Transfer",
      "type": "event"
    },
    {
      "inputs": [],
      "name": "DAI",
      "outputs": [
        {
          "internalType": "contract IERC20",
          "name": "",
          "type": "address"
        }
      ],
      "stateMutability": "view",
      "type": "function"
    },
    {
      "inputs": [],
      "name": "DAI_AMOUNT",
      "outputs": [
        {
          "internalType": "uint256",
          "name": "",
          "type": "uint256"
        }
      ],
      "stateMutability": "view",
      "type": "function"
    },
    {
      "inputs": [],
      "name": "ETH_AMOUNT",
      "outputs": [
        {
          "internalType": "uint256",
          "name": "",
          "type": "uint256"
        }
      ],
      "stateMutability": "view",
      "type": "function"
    },
    {
      "inputs": [],
      "name": "NFT_COUNT",
      "outputs": [
        {
          "internalType": "uint256",
          "name": "",
          "type": "uint256"
        }
      ],
      "stateMutability": "view",
      "type": "function"
    },
    {
      "inputs": [],
      "name": "URI",
      "outputs": [
        {
          "internalType": "string",
          "name": "",
          "type": "string"
        }
      ],
      "stateMutability": "view",
      "type": "function"
    },
    {
      "inputs": [],
      "name": "WETH",
      "outputs": [
        {
          "internalType": "contract IERC20",
          "name": "",
          "type": "address"
        }
      ],
      "stateMutability": "view",
      "type": "function"
    },
    {
      "inputs": [],
      "name": "WETH_AMOUNT",
      "outputs": [
        {
          "internalType": "uint256",
          "name": "",
          "type": "uint256"
        }
      ],
      "stateMutability": "view",
      "type": "function"
    },
    {
      "inputs": [
        {
          "internalType": "address",
          "name": "to",
          "type": "address"
        },
        {
          "internalType": "uint256",
          "name": "tokenId",
          "type": "uint256"
        }
      ],
      "name": "approve",
      "outputs": [],
      "stateMutability": "nonpayable",
      "type": "function"
    },
    {
      "inputs": [
        {
          "internalType": "address",
          "name": "",
          "type": "address"
        }
      ],
      "name": "approvedOperators",
      "outputs": [
        {
          "internalType": "bool",
          "name": "",
          "type": "bool"
        }
      ],
      "stateMutability": "view",
      "type": "function"
    },
    {
      "inputs": [],
      "name": "availableDrips",
      "outputs": [
        {
          "internalType": "uint256",
          "name": "ethDrips",
          "type": "uint256"
        },
        {
          "internalType": "uint256",
          "name": "daiDrips",
          "type": "uint256"
        },
        {
          "internalType": "uint256",
          "name": "wethDrips",
          "type": "uint256"
        }
      ],
      "stateMutability": "view",
      "type": "function"
    },
    {
      "inputs": [
        {
          "internalType": "address",
          "name": "owner",
          "type": "address"
        }
      ],
      "name": "balanceOf",
      "outputs": [
        {
          "internalType": "uint256",
          "name": "",
          "type": "uint256"
        }
      ],
      "stateMutability": "view",
      "type": "function"
    },
    {
      "inputs": [
        {
          "internalType": "address",
          "name": "_recipient",
          "type": "address"
        }
      ],
      "name": "drain",
      "outputs": [],
      "stateMutability": "nonpayable",
      "type": "function"
    },
    {
      "inputs": [
        {
          "internalType": "address",
          "name": "_recipient",
          "type": "address"
        }
      ],
      "name": "drip",
      "outputs": [],
      "stateMutability": "nonpayable",
      "type": "function"
    },
    {
      "inputs": [
        {
          "internalType": "uint256",
          "name": "tokenId",
          "type": "uint256"
        }
      ],
      "name": "getApproved",
      "outputs": [
        {
          "internalType": "address",
          "name": "",
          "type": "address"
        }
      ],
      "stateMutability": "view",
      "type": "function"
    },
    {
      "inputs": [
        {
          "internalType": "address",
          "name": "owner",
          "type": "address"
        },
        {
          "internalType": "address",
          "name": "operator",
          "type": "address"
        }
      ],
      "name": "isApprovedForAll",
      "outputs": [
        {
          "internalType": "bool",
          "name": "",
          "type": "bool"
        }
      ],
      "stateMutability": "view",
      "type": "function"
    },
    {
      "inputs": [],
      "name": "name",
      "outputs": [
        {
          "internalType": "string",
          "name": "",
          "type": "string"
        }
      ],
      "stateMutability": "view",
      "type": "function"
    },
    {
      "inputs": [],
      "name": "nftsMinted",
      "outputs": [
        {
          "internalType": "uint256",
          "name": "",
          "type": "uint256"
        }
      ],
      "stateMutability": "view",
      "type": "function"
    },
    {
      "inputs": [
        {
          "internalType": "uint256",
          "name": "tokenId",
          "type": "uint256"
        }
      ],
      "name": "ownerOf",
      "outputs": [
        {
          "internalType": "address",
          "name": "",
          "type": "address"
        }
      ],
      "stateMutability": "view",
      "type": "function"
    },
    {
      "inputs": [
        {
          "internalType": "address",
          "name": "from",
          "type": "address"
        },
        {
          "internalType": "address",
          "name": "to",
          "type": "address"
        },
        {
          "internalType": "uint256",
          "name": "tokenId",
          "type": "uint256"
        }
      ],
      "name": "safeTransferFrom",
      "outputs": [],
      "stateMutability": "nonpayable",
      "type": "function"
    },
    {
      "inputs": [
        {
          "internalType": "address",
          "name": "from",
          "type": "address"
        },
        {
          "internalType": "address",
          "name": "to",
          "type": "address"
        },
        {
          "internalType": "uint256",
          "name": "tokenId",
          "type": "uint256"
        },
        {
          "internalType": "bytes",
          "name": "data",
          "type": "bytes"
        }
      ],
      "name": "safeTransferFrom",
      "outputs": [],
      "stateMutability": "nonpayable",
      "type": "function"
    },
    {
      "inputs": [
        {
          "internalType": "address",
          "name": "operator",
          "type": "address"
        },
        {
          "internalType": "bool",
          "name": "approved",
          "type": "bool"
        }
      ],
      "name": "setApprovalForAll",
      "outputs": [],
      "stateMutability": "nonpayable",
      "type": "function"
    },
    {
      "inputs": [
        {
          "internalType": "address",
          "name": "",
          "type": "address"
        }
      ],
      "name": "superOperators",
      "outputs": [
        {
          "internalType": "bool",
          "name": "",
          "type": "bool"
        }
      ],
      "stateMutability": "view",
      "type": "function"
    },
    {
      "inputs": [
        {
          "internalType": "bytes4",
          "name": "interfaceId",
          "type": "bytes4"
        }
      ],
      "name": "supportsInterface",
      "outputs": [
        {
          "internalType": "bool",
          "name": "",
          "type": "bool"
        }
      ],
      "stateMutability": "view",
      "type": "function"
    },
    {
      "inputs": [],
      "name": "symbol",
      "outputs": [
        {
          "internalType": "string",
          "name": "",
          "type": "string"
        }
      ],
      "stateMutability": "view",
      "type": "function"
    },
    {
      "inputs": [
        {
          "internalType": "uint256",
          "name": "tokenId",
          "type": "uint256"
        }
      ],
      "name": "tokenURI",
      "outputs": [
        {
          "internalType": "string",
          "name": "",
          "type": "string"
        }
      ],
      "stateMutability": "view",
      "type": "function"
    },
    {
      "inputs": [
        {
          "internalType": "address",
          "name": "from",
          "type": "address"
        },
        {
          "internalType": "address",
          "name": "to",
          "type": "address"
        },
        {
          "internalType": "uint256",
          "name": "tokenId",
          "type": "uint256"
        }
      ],
      "name": "transferFrom",
      "outputs": [],
      "stateMutability": "nonpayable",
      "type": "function"
    },
    {
      "inputs": [
        {
          "internalType": "address",
          "name": "_operator",
          "type": "address"
        },
        {
          "internalType": "bool",
          "name": "_status",
          "type": "bool"
        }
      ],
      "name": "updateApprovedOperator",
      "outputs": [],
      "stateMutability": "nonpayable",
      "type": "function"
    },
    {
      "inputs": [
        {
          "internalType": "uint256",
          "name": "_nftCount",
          "type": "uint256"
        },
        {
          "internalType": "uint256",
          "name": "_ethAmount",
          "type": "uint256"
        },
        {
          "internalType": "uint256",
          "name": "_daiAmount",
          "type": "uint256"
        },
        {
          "internalType": "uint256",
          "name": "_wethAmount",
          "type": "uint256"
        }
      ],
      "name": "updateDripAmounts",
      "outputs": [],
      "stateMutability": "nonpayable",
      "type": "function"
    },
    {
      "inputs": [
        {
          "internalType": "address",
          "name": "_operator",
          "type": "address"
        },
        {
          "internalType": "bool",
          "name": "_status",
          "type": "bool"
        }
      ],
      "name": "updateSuperOperator",
      "outputs": [],
      "stateMutability": "nonpayable",
      "type": "function"
    },
    {
      "inputs": [
        {
          "internalType": "string",
          "name": "_URI",
          "type": "string"
        }
      ],
      "name": "updateTokenURI",
      "outputs": [],
      "stateMutability": "nonpayable",
      "type": "function"
    },
    {
      "stateMutability": "payable",
      "type": "receive"
    }
  ],
  "transactionHash": "0xe95fc52f9208c245eafa9742a151ff671813d3f014b07c718d0c223f3d0a434f",
  "args": [
    "0xac6e29F8DF22Ebbd22CB089f52558760F3ba4247",
    "0x0bD9060153E7CA86341E9B7D53df2bc0eC51B985",
    "https://ipfs.io/ipfs/bafybeie5sae57x3nchd5ua3tgser6y5cg6jifiauaz2pjgx5hyd5c7z3pu"
  ],
  "numDeployments": 2,
  "solcInputHash": "82926d691ae913fccede2e2b59a180e6",
  "bytecode": "0x60c060405260056008556706f05b59d3b2000060095569010f0cf064dd59200000600a556706f05b59d3b20000600b553480156200003c57600080fd5b5060405162002ac638038062002ac68339810160408190526200005f9162000141565b6040518060400160405280600f81526020016e135d5b1d1a51985d58d95d08139195608a1b81525060405180604001604052806005815260200164135193919560da1b8152508160009081620000b69190620002ca565b506001620000c58282620002ca565b5050506001600160a01b03808416608052821660a0526006620000e98282620002ca565b5050336000908152600d60205260409020805460ff1916600117905550620003969050565b80516001600160a01b03811681146200012657600080fd5b919050565b634e487b7160e01b600052604160045260246000fd5b6000806000606084860312156200015757600080fd5b62000162846200010e565b92506020620001738186016200010e565b60408601519093506001600160401b03808211156200019157600080fd5b818701915087601f830112620001a657600080fd5b815181811115620001bb57620001bb6200012b565b604051601f8201601f19908116603f01168101908382118183101715620001e657620001e66200012b565b816040528281528a86848701011115620001ff57600080fd5b600093505b8284101562000223578484018601518185018701529285019262000204565b60008684830101528096505050505050509250925092565b600181811c908216806200025057607f821691505b6020821081036200027157634e487b7160e01b600052602260045260246000fd5b50919050565b601f821115620002c557600081815260208120601f850160051c81016020861015620002a05750805b601f850160051c820191505b81811015620002c157828155600101620002ac565b5050505b505050565b81516001600160401b03811115620002e657620002e66200012b565b620002fe81620002f784546200023b565b8462000277565b602080601f8311600181146200033657600084156200031d5750858301515b600019600386901b1c1916600185901b178555620002c1565b600085815260208120601f198616915b82811015620003675788860151825594840194600190910190840162000346565b5085821015620003865787850151600019600388901b60f8161c191681555b5050505050600190811b01905550565b60805160a0516126d2620003f4600039600081816104b001528181610aec01528181610e1201528181611696015261173201526000818161055a01528181610a5301528181610d2d0152818161152701526115c301526126d26000f3fe6080604052600436106101d15760003560e01c8063929398f5116100f7578063b88d4fde11610095578063e0bab4c411610064578063e0bab4c414610548578063e985e9c51461057c578063ece53132146105c5578063ff721aba146105e557600080fd5b8063b88d4fde146104d2578063c14033ba146104f2578063c87b56dd14610508578063d370169d1461052857600080fd5b80639d4944c8116100d15780639d4944c81461042e5780639f40c9a71461044e578063a22cb4651461047e578063ad5c46481461049e57600080fd5b8063929398f5146103e357806395d89b41146103f957806398cd61531461040e57600080fd5b806342842e0e1161016f5780636e99fddf1161013e5780636e99fddf1461037757806370a082311461038d57806377caec8d146103ad57806383464e22146103cd57600080fd5b806342842e0e146102f357806360df19e0146103135780636352211e1461033757806367a5cd061461035757600080fd5b8063095ea7b3116101ab578063095ea7b31461026c5780631141d7de1461028e57806323b872dd146102a357806324cf0771146102c357600080fd5b806301ffc9a7146101dd57806306fdde0314610212578063081812fc1461023457600080fd5b366101d857005b600080fd5b3480156101e957600080fd5b506101fd6101f836600461211f565b610615565b60405190151581526020015b60405180910390f35b34801561021e57600080fd5b506102276106fa565b6040516102099190612189565b34801561024057600080fd5b5061025461024f36600461219c565b61078c565b6040516001600160a01b039091168152602001610209565b34801561027857600080fd5b5061028c6102873660046121d1565b6107b3565b005b34801561029a57600080fd5b50610227610907565b3480156102af57600080fd5b5061028c6102be3660046121fb565b610995565b3480156102cf57600080fd5b506102d8610a1c565b60408051938452602084019290925290820152606001610209565b3480156102ff57600080fd5b5061028c61030e3660046121fb565b610b68565b34801561031f57600080fd5b5061032960075481565b604051908152602001610209565b34801561034357600080fd5b5061025461035236600461219c565b610b83565b34801561036357600080fd5b5061028c610372366004612237565b610be8565b34801561038357600080fd5b5061032960085481565b34801561039957600080fd5b506103296103a8366004612237565b610f54565b3480156103b957600080fd5b5061028c6103c8366004612260565b610fee565b3480156103d957600080fd5b50610329600b5481565b3480156103ef57600080fd5b50610329600a5481565b34801561040557600080fd5b506102276110ad565b34801561041a57600080fd5b5061028c610429366004612323565b6110bc565b34801561043a57600080fd5b5061028c61044936600461236c565b61112b565b34801561045a57600080fd5b506101fd610469366004612237565b600d6020526000908152604090205460ff1681565b34801561048a57600080fd5b5061028c610499366004612260565b61119e565b3480156104aa57600080fd5b506102547f000000000000000000000000000000000000000000000000000000000000000081565b3480156104de57600080fd5b5061028c6104ed36600461239e565b6111a9565b3480156104fe57600080fd5b5061032960095481565b34801561051457600080fd5b5061022761052336600461219c565b611237565b34801561053457600080fd5b5061028c610543366004612260565b611356565b34801561055457600080fd5b506102547f000000000000000000000000000000000000000000000000000000000000000081565b34801561058857600080fd5b506101fd61059736600461241a565b6001600160a01b03918216600090815260056020908152604080832093909416825291909152205460ff1690565b3480156105d157600080fd5b5061028c6105e0366004612237565b61140d565b3480156105f157600080fd5b506101fd610600366004612237565b600c6020526000908152604090205460ff1681565b60007fffffffff0000000000000000000000000000000000000000000000000000000082167f80ac58cd0000000000000000000000000000000000000000000000000000000014806106a857507fffffffff0000000000000000000000000000000000000000000000000000000082167f5b5e139f00000000000000000000000000000000000000000000000000000000145b806106f457507f01ffc9a7000000000000000000000000000000000000000000000000000000007fffffffff000000000000000000000000000000000000000000000000000000008316145b92915050565b6060600080546107099061244d565b80601f01602080910402602001604051908101604052809291908181526020018280546107359061244d565b80156107825780601f1061075757610100808354040283529160200191610782565b820191906000526020600020905b81548152906001019060200180831161076557829003601f168201915b5050505050905090565b600061079782611827565b506000908152600460205260409020546001600160a01b031690565b60006107be82610b83565b9050806001600160a01b0316836001600160a01b03160361084c5760405162461bcd60e51b815260206004820152602160248201527f4552433732313a20617070726f76616c20746f2063757272656e74206f776e6560448201527f720000000000000000000000000000000000000000000000000000000000000060648201526084015b60405180910390fd5b336001600160a01b038216148061088657506001600160a01b038116600090815260056020908152604080832033845290915290205460ff165b6108f85760405162461bcd60e51b815260206004820152603d60248201527f4552433732313a20617070726f76652063616c6c6572206973206e6f7420746f60448201527f6b656e206f776e6572206f7220617070726f76656420666f7220616c6c0000006064820152608401610843565b610902838361188e565b505050565b600680546109149061244d565b80601f01602080910402602001604051908101604052809291908181526020018280546109409061244d565b801561098d5780601f106109625761010080835404028352916020019161098d565b820191906000526020600020905b81548152906001019060200180831161097057829003601f168201915b505050505081565b61099f3382611909565b610a115760405162461bcd60e51b815260206004820152602d60248201527f4552433732313a2063616c6c6572206973206e6f7420746f6b656e206f776e6560448201527f72206f7220617070726f766564000000000000000000000000000000000000006064820152608401610843565b610902838383611988565b600080600060095447610a2f919061249d565b600a546040516370a0823160e01b8152306004820152919450906001600160a01b037f000000000000000000000000000000000000000000000000000000000000000016906370a0823190602401602060405180830381865afa158015610a9a573d6000803e3d6000fd5b505050506040513d601f19601f82011682018060405250810190610abe91906124bf565b610ac8919061249d565b600b546040516370a0823160e01b8152306004820152919350906001600160a01b037f000000000000000000000000000000000000000000000000000000000000000016906370a0823190602401602060405180830381865afa158015610b33573d6000803e3d6000fd5b505050506040513d601f19601f82011682018060405250810190610b5791906124bf565b610b61919061249d565b9050909192565b610902838383604051806020016040528060008152506111a9565b6000818152600260205260408120546001600160a01b0316806106f45760405162461bcd60e51b815260206004820152601860248201527f4552433732313a20696e76616c696420746f6b656e20494400000000000000006044820152606401610843565b336000908152600c602052604090205460ff1680610c155750336000908152600d602052604090205460ff165b610c615760405162461bcd60e51b815260206004820152601560248201527f4e6f7420617070726f766564206f70657261746f7200000000000000000000006044820152606401610843565b6009546040516000916001600160a01b038416918381818185875af1925050503d8060008114610cad576040519150601f19603f3d011682016040523d82523d6000602084013e610cb2565b606091505b5050905080610d035760405162461bcd60e51b815260206004820152601360248201527f4661696c6564206472697070696e6720455448000000000000000000000000006044820152606401610843565b600a5460405163a9059cbb60e01b81526001600160a01b03848116600483015260248201929092527f00000000000000000000000000000000000000000000000000000000000000009091169063a9059cbb906044016020604051808303816000875af1158015610d78573d6000803e3d6000fd5b505050506040513d601f19601f82011682018060405250810190610d9c91906124d8565b610de85760405162461bcd60e51b815260206004820152601360248201527f4661696c6564206472697070696e6720444149000000000000000000000000006044820152606401610843565b600b5460405163a9059cbb60e01b81526001600160a01b03848116600483015260248201929092527f00000000000000000000000000000000000000000000000000000000000000009091169063a9059cbb906044016020604051808303816000875af1158015610e5d573d6000803e3d6000fd5b505050506040513d601f19601f82011682018060405250810190610e8191906124d8565b610ecd5760405162461bcd60e51b815260206004820152601460248201527f4661696c6564206472697070696e6720774554480000000000000000000000006044820152606401610843565b60015b6008548111610f0257610ef08382600754610eeb91906124f5565b611bcb565b80610efa81612508565b915050610ed0565b5060085460076000828254610f1791906124f5565b90915550506040516001600160a01b038316907f15b77122e87b6c2a7a9afcd86d718fe489828e6fd4d686aef3b823179ab04dbf90600090a25050565b60006001600160a01b038216610fd25760405162461bcd60e51b815260206004820152602960248201527f4552433732313a2061646472657373207a65726f206973206e6f74206120766160448201527f6c6964206f776e657200000000000000000000000000000000000000000000006064820152608401610843565b506001600160a01b031660009081526003602052604090205490565b336000908152600d602052604090205460ff1661104d5760405162461bcd60e51b815260206004820152601260248201527f4e6f74207375706572206f70657261746f7200000000000000000000000000006044820152606401610843565b6001600160a01b0382166000818152600c6020908152604091829020805460ff191685151590811790915591519182527f966c160e1c4dbc7df8d69af4ace01e9297c3cf016397b7914971f2fbfa32672d91015b60405180910390a25050565b6060600180546107099061244d565b336000908152600d602052604090205460ff1661111b5760405162461bcd60e51b815260206004820152601260248201527f4e6f74207375706572206f70657261746f7200000000000000000000000000006044820152606401610843565b60066111278282612570565b5050565b336000908152600d602052604090205460ff1661118a5760405162461bcd60e51b815260206004820152601260248201527f4e6f74207375706572206f70657261746f7200000000000000000000000000006044820152606401610843565b600893909355600991909155600a55600b55565b611127338383611d71565b6111b33383611909565b6112255760405162461bcd60e51b815260206004820152602d60248201527f4552433732313a2063616c6c6572206973206e6f7420746f6b656e206f776e6560448201527f72206f7220617070726f766564000000000000000000000000000000000000006064820152608401610843565b61123184848484611e3f565b50505050565b6000818152600260205260409020546060906001600160a01b03166112c45760405162461bcd60e51b815260206004820152602f60248201527f4552433732314d657461646174613a2055524920717565727920666f72206e6f60448201527f6e6578697374656e7420746f6b656e00000000000000000000000000000000006064820152608401610843565b600680546112d19061244d565b80601f01602080910402602001604051908101604052809291908181526020018280546112fd9061244d565b801561134a5780601f1061131f5761010080835404028352916020019161134a565b820191906000526020600020905b81548152906001019060200180831161132d57829003601f168201915b50505050509050919050565b336000908152600d602052604090205460ff166113b55760405162461bcd60e51b815260206004820152601260248201527f4e6f74207375706572206f70657261746f7200000000000000000000000000006044820152606401610843565b6001600160a01b0382166000818152600d6020908152604091829020805460ff191685151590811790915591519182527f16b3641b846fa469157c01910687996a0318a9c2159e882502ed4d838d593c4291016110a1565b336000908152600d602052604090205460ff1661146c5760405162461bcd60e51b815260206004820152601260248201527f4e6f74207375706572206f70657261746f7200000000000000000000000000006044820152606401610843565b6000816001600160a01b03164760405160006040518083038185875af1925050503d80600081146114b9576040519150601f19603f3d011682016040523d82523d6000602084013e6114be565b606091505b505090508061150f5760405162461bcd60e51b815260206004820152601360248201527f4661696c656420647261696e696e6720455448000000000000000000000000006044820152606401610843565b6040516370a0823160e01b81523060048201526000907f00000000000000000000000000000000000000000000000000000000000000006001600160a01b0316906370a0823190602401602060405180830381865afa158015611576573d6000803e3d6000fd5b505050506040513d601f19601f8201168201806040525081019061159a91906124bf565b60405163a9059cbb60e01b81526001600160a01b038581166004830152602482018390529192507f00000000000000000000000000000000000000000000000000000000000000009091169063a9059cbb906044016020604051808303816000875af115801561160e573d6000803e3d6000fd5b505050506040513d601f19601f8201168201806040525081019061163291906124d8565b61167e5760405162461bcd60e51b815260206004820152601360248201527f4661696c656420647261696e696e6720444149000000000000000000000000006044820152606401610843565b6040516370a0823160e01b81523060048201526000907f00000000000000000000000000000000000000000000000000000000000000006001600160a01b0316906370a0823190602401602060405180830381865afa1580156116e5573d6000803e3d6000fd5b505050506040513d601f19601f8201168201806040525081019061170991906124bf565b60405163a9059cbb60e01b81526001600160a01b038681166004830152602482018390529192507f00000000000000000000000000000000000000000000000000000000000000009091169063a9059cbb906044016020604051808303816000875af115801561177d573d6000803e3d6000fd5b505050506040513d601f19601f820116820180604052508101906117a191906124d8565b6117ed5760405162461bcd60e51b815260206004820152601460248201527f4661696c6564206472697070696e6720774554480000000000000000000000006044820152606401610843565b6040516001600160a01b038516907f7c8fc2d32492ea30dc289f81f32ebd6e1bcb12644f56039a3a274a924decc4a190600090a250505050565b6000818152600260205260409020546001600160a01b031661188b5760405162461bcd60e51b815260206004820152601860248201527f4552433732313a20696e76616c696420746f6b656e20494400000000000000006044820152606401610843565b50565b6000818152600460205260409020805473ffffffffffffffffffffffffffffffffffffffff19166001600160a01b03841690811790915581906118d082610b83565b6001600160a01b03167f8c5be1e5ebec7d5bd14f71427d1e84f3dd0314c0f7b2291e5b200ac8c7c3b92560405160405180910390a45050565b60008061191583610b83565b9050806001600160a01b0316846001600160a01b0316148061195c57506001600160a01b0380821660009081526005602090815260408083209388168352929052205460ff165b806119805750836001600160a01b03166119758461078c565b6001600160a01b0316145b949350505050565b826001600160a01b031661199b82610b83565b6001600160a01b031614611a175760405162461bcd60e51b815260206004820152602560248201527f4552433732313a207472616e736665722066726f6d20696e636f72726563742060448201527f6f776e65720000000000000000000000000000000000000000000000000000006064820152608401610843565b6001600160a01b038216611a925760405162461bcd60e51b8152602060048201526024808201527f4552433732313a207472616e7366657220746f20746865207a65726f2061646460448201527f72657373000000000000000000000000000000000000000000000000000000006064820152608401610843565b611a9f8383836001611ec8565b826001600160a01b0316611ab282610b83565b6001600160a01b031614611b2e5760405162461bcd60e51b815260206004820152602560248201527f4552433732313a207472616e736665722066726f6d20696e636f72726563742060448201527f6f776e65720000000000000000000000000000000000000000000000000000006064820152608401610843565b6000818152600460209081526040808320805473ffffffffffffffffffffffffffffffffffffffff199081169091556001600160a01b0387811680865260038552838620805460001901905590871680865283862080546001019055868652600290945282852080549092168417909155905184937fddf252ad1be2c89b69c2b068fc378daa952ba7f163c4a11628f55a4df523b3ef91a4505050565b6001600160a01b038216611c215760405162461bcd60e51b815260206004820181905260248201527f4552433732313a206d696e7420746f20746865207a65726f20616464726573736044820152606401610843565b6000818152600260205260409020546001600160a01b031615611c865760405162461bcd60e51b815260206004820152601c60248201527f4552433732313a20746f6b656e20616c7265616479206d696e746564000000006044820152606401610843565b611c94600083836001611ec8565b6000818152600260205260409020546001600160a01b031615611cf95760405162461bcd60e51b815260206004820152601c60248201527f4552433732313a20746f6b656e20616c7265616479206d696e746564000000006044820152606401610843565b6001600160a01b0382166000818152600360209081526040808320805460010190558483526002909152808220805473ffffffffffffffffffffffffffffffffffffffff19168417905551839291907fddf252ad1be2c89b69c2b068fc378daa952ba7f163c4a11628f55a4df523b3ef908290a45050565b816001600160a01b0316836001600160a01b031603611dd25760405162461bcd60e51b815260206004820152601960248201527f4552433732313a20617070726f766520746f2063616c6c6572000000000000006044820152606401610843565b6001600160a01b03838116600081815260056020908152604080832094871680845294825291829020805460ff191686151590811790915591519182527f17307eab39ab6107e8899845ad3d59bd9653f200f220920489ca2b5937696c31910160405180910390a3505050565b611e4a848484611988565b611e5684848484611f50565b6112315760405162461bcd60e51b815260206004820152603260248201527f4552433732313a207472616e7366657220746f206e6f6e20455243373231526560448201527f63656976657220696d706c656d656e74657200000000000000000000000000006064820152608401610843565b6001811115611231576001600160a01b03841615611f0e576001600160a01b03841660009081526003602052604081208054839290611f08908490612630565b90915550505b6001600160a01b03831615611231576001600160a01b03831660009081526003602052604081208054839290611f459084906124f5565b909155505050505050565b60006001600160a01b0384163b156120e6576040517f150b7a020000000000000000000000000000000000000000000000000000000081526001600160a01b0385169063150b7a0290611fad903390899088908890600401612643565b6020604051808303816000875af1925050508015611fe8575060408051601f3d908101601f19168201909252611fe59181019061267f565b60015b61209b573d808015612016576040519150601f19603f3d011682016040523d82523d6000602084013e61201b565b606091505b5080516000036120935760405162461bcd60e51b815260206004820152603260248201527f4552433732313a207472616e7366657220746f206e6f6e20455243373231526560448201527f63656976657220696d706c656d656e74657200000000000000000000000000006064820152608401610843565b805181602001fd5b7fffffffff00000000000000000000000000000000000000000000000000000000167f150b7a0200000000000000000000000000000000000000000000000000000000149050611980565b506001949350505050565b7fffffffff000000000000000000000000000000000000000000000000000000008116811461188b57600080fd5b60006020828403121561213157600080fd5b813561213c816120f1565b9392505050565b6000815180845260005b818110156121695760208185018101518683018201520161214d565b506000602082860101526020601f19601f83011685010191505092915050565b60208152600061213c6020830184612143565b6000602082840312156121ae57600080fd5b5035919050565b80356001600160a01b03811681146121cc57600080fd5b919050565b600080604083850312156121e457600080fd5b6121ed836121b5565b946020939093013593505050565b60008060006060848603121561221057600080fd5b612219846121b5565b9250612227602085016121b5565b9150604084013590509250925092565b60006020828403121561224957600080fd5b61213c826121b5565b801515811461188b57600080fd5b6000806040838503121561227357600080fd5b61227c836121b5565b9150602083013561228c81612252565b809150509250929050565b634e487b7160e01b600052604160045260246000fd5b600067ffffffffffffffff808411156122c8576122c8612297565b604051601f8501601f19908116603f011681019082821181831017156122f0576122f0612297565b8160405280935085815286868601111561230957600080fd5b858560208301376000602087830101525050509392505050565b60006020828403121561233557600080fd5b813567ffffffffffffffff81111561234c57600080fd5b8201601f8101841361235d57600080fd5b611980848235602084016122ad565b6000806000806080858703121561238257600080fd5b5050823594602084013594506040840135936060013592509050565b600080600080608085870312156123b457600080fd5b6123bd856121b5565b93506123cb602086016121b5565b925060408501359150606085013567ffffffffffffffff8111156123ee57600080fd5b8501601f810187136123ff57600080fd5b61240e878235602084016122ad565b91505092959194509250565b6000806040838503121561242d57600080fd5b612436836121b5565b9150612444602084016121b5565b90509250929050565b600181811c9082168061246157607f821691505b60208210810361248157634e487b7160e01b600052602260045260246000fd5b50919050565b634e487b7160e01b600052601160045260246000fd5b6000826124ba57634e487b7160e01b600052601260045260246000fd5b500490565b6000602082840312156124d157600080fd5b5051919050565b6000602082840312156124ea57600080fd5b815161213c81612252565b808201808211156106f4576106f4612487565b6000600019820361251b5761251b612487565b5060010190565b601f82111561090257600081815260208120601f850160051c810160208610156125495750805b601f850160051c820191505b8181101561256857828155600101612555565b505050505050565b815167ffffffffffffffff81111561258a5761258a612297565b61259e81612598845461244d565b84612522565b602080601f8311600181146125d357600084156125bb5750858301515b600019600386901b1c1916600185901b178555612568565b600085815260208120601f198616915b82811015612602578886015182559484019460019091019084016125e3565b50858210156126205787850151600019600388901b60f8161c191681555b5050505050600190811b01905550565b818103818111156106f4576106f4612487565b60006001600160a01b038087168352808616602084015250836040830152608060608301526126756080830184612143565b9695505050505050565b60006020828403121561269157600080fd5b815161213c816120f156fea264697066735822122019239e1dfe70d9c2a94a255c44b0553220fdf344a7b45b058498cb756300228964736f6c63430008110033",
  "devdoc": {
    "author": "Anish Agnihotri",
    "events": {
      "FaucetDrained(address)": {
        "params": {
          "recipient": "address drained to"
        }
      },
      "FaucetDripped(address)": {
        "params": {
          "recipient": "address dripped to"
        }
      },
      "OperatorUpdated(address,bool)": {
        "params": {
          "operator": "address being updated",
          "status": "new operator status"
        }
      },
      "SuperOperatorUpdated(address,bool)": {
        "params": {
          "operator": "address being updated",
          "status": "new operator status"
        }
      }
    },
    "kind": "dev",
    "methods": {
      "approve(address,uint256)": {
        "details": "See {IERC721-approve}."
      },
      "availableDrips()": {
        "returns": {
          "daiDrips": " available DAI drips",
          "ethDrips": " available Ether drips",
          "wethDrips": " available wETH drips"
        }
      },
      "balanceOf(address)": {
        "details": "See {IERC721-balanceOf}."
      },
      "constructor": {
        "params": {
          "_DAI": "address of DAI contract",
          "_URI": "string of token URI",
          "_WETH": "address of wETH contract"
        }
      },
      "drain(address)": {
        "params": {
          "_recipient": "to send drained tokens to"
        }
      },
      "drip(address)": {
        "params": {
          "_recipient": "to drip tokens to"
        }
      },
      "getApproved(uint256)": {
        "details": "See {IERC721-getApproved}."
      },
      "isApprovedForAll(address,address)": {
        "details": "See {IERC721-isApprovedForAll}."
      },
      "name()": {
        "details": "See {IERC721Metadata-name}."
      },
      "ownerOf(uint256)": {
        "details": "See {IERC721-ownerOf}."
      },
      "safeTransferFrom(address,address,uint256)": {
        "details": "See {IERC721-safeTransferFrom}."
      },
      "safeTransferFrom(address,address,uint256,bytes)": {
        "details": "See {IERC721-safeTransferFrom}."
      },
      "setApprovalForAll(address,bool)": {
        "details": "See {IERC721-setApprovalForAll}."
      },
      "supportsInterface(bytes4)": {
        "details": "See {IERC165-supportsInterface}."
      },
      "symbol()": {
        "details": "See {IERC721Metadata-symbol}."
      },
      "tokenURI(uint256)": {
        "params": {
          "tokenId": "of ERC721 NFT"
        }
      },
      "transferFrom(address,address,uint256)": {
        "details": "See {IERC721-transferFrom}."
      },
      "updateApprovedOperator(address,bool)": {
        "params": {
          "_operator": "address to update",
          "_status": "of operator to toggle (true == allowed to drip)"
        }
      },
      "updateDripAmounts(uint256,uint256,uint256,uint256)": {
        "params": {
          "_daiAmount": "DAI to drip",
          "_ethAmount": "ETH to drip",
          "_nftCount": "number of NFTs to mint per drip",
          "_wethAmount": "wETH to drip"
        }
      },
      "updateSuperOperator(address,bool)": {
        "params": {
          "_operator": "address to update",
          "_status": "of operator to toggle (true === is super operator)"
        }
      },
      "updateTokenURI(string)": {
        "params": {
          "_URI": "of collection"
        }
      }
    },
    "title": "MultiFaucet",
    "version": 1
  },
  "userdoc": {
    "events": {
      "FaucetDrained(address)": {
        "notice": "Emitted after faucet drained to a recipient"
      },
      "FaucetDripped(address)": {
        "notice": "Emitted after faucet drips to a recipient"
      },
      "OperatorUpdated(address,bool)": {
        "notice": "Emitted after operator status is updated"
      },
      "SuperOperatorUpdated(address,bool)": {
        "notice": "Emitted after super operator is updated"
      }
    },
    "kind": "user",
    "methods": {
      "DAI()": {
        "notice": "DAI ERC20 token"
      },
      "DAI_AMOUNT()": {
        "notice": "DAI to disperse"
      },
      "ETH_AMOUNT()": {
        "notice": "ETH to disperse"
      },
      "NFT_COUNT()": {
        "notice": "Number of ERC721 NFTs to mint"
      },
      "URI()": {
        "notice": "Default NFT uri"
      },
      "WETH()": {
        "notice": "wETH ERC20 token"
      },
      "WETH_AMOUNT()": {
        "notice": "wETH to disperse"
      },
      "approvedOperators(address)": {
        "notice": "Addresses of approved operators"
      },
      "availableDrips()": {
        "notice": "Returns number of available drips by token"
      },
      "constructor": {
        "notice": "Creates a new MultiFaucet contract"
      },
      "drain(address)": {
        "notice": "Allows super operator to drain contract of tokens"
      },
      "drip(address)": {
        "notice": "Drips and mints tokens to recipient"
      },
      "nftsMinted()": {
        "notice": "Count of minted NFTs"
      },
      "superOperators(address)": {
        "notice": "Addresses of super operators"
      },
      "tokenURI(uint256)": {
        "notice": "Override internal ERC721 function to return single image per NFT"
      },
      "updateApprovedOperator(address,bool)": {
        "notice": "Allows super operator to update approved drip operator status"
      },
      "updateDripAmounts(uint256,uint256,uint256,uint256)": {
        "notice": "Allows super operator to update drip amounts"
      },
      "updateSuperOperator(address,bool)": {
        "notice": "Allows super operator to update super operator"
      },
      "updateTokenURI(string)": {
        "notice": "Allows super operator to update NFT uri"
      }
    },
    "notice": "Drips ETH, DAI, wETH, and mints NFTs",
    "version": 1
  },
  "storageLayout": {
    "storage": [
      {
        "astId": 25,
        "contract": "contracts/MultiFaucet.sol:MultiFaucet",
        "label": "_name",
        "offset": 0,
        "slot": "0",
        "type": "t_string_storage"
      },
      {
        "astId": 27,
        "contract": "contracts/MultiFaucet.sol:MultiFaucet",
        "label": "_symbol",
        "offset": 0,
        "slot": "1",
        "type": "t_string_storage"
      },
      {
        "astId": 31,
        "contract": "contracts/MultiFaucet.sol:MultiFaucet",
        "label": "_owners",
        "offset": 0,
        "slot": "2",
        "type": "t_mapping(t_uint256,t_address)"
      },
      {
        "astId": 35,
        "contract": "contracts/MultiFaucet.sol:MultiFaucet",
        "label": "_balances",
        "offset": 0,
        "slot": "3",
        "type": "t_mapping(t_address,t_uint256)"
      },
      {
        "astId": 39,
        "contract": "contracts/MultiFaucet.sol:MultiFaucet",
        "label": "_tokenApprovals",
        "offset": 0,
        "slot": "4",
        "type": "t_mapping(t_uint256,t_address)"
      },
      {
        "astId": 45,
        "contract": "contracts/MultiFaucet.sol:MultiFaucet",
        "label": "_operatorApprovals",
        "offset": 0,
        "slot": "5",
        "type": "t_mapping(t_address,t_mapping(t_address,t_bool))"
      },
      {
        "astId": 2551,
        "contract": "contracts/MultiFaucet.sol:MultiFaucet",
        "label": "URI",
        "offset": 0,
        "slot": "6",
        "type": "t_string_storage"
      },
      {
        "astId": 2554,
        "contract": "contracts/MultiFaucet.sol:MultiFaucet",
        "label": "nftsMinted",
        "offset": 0,
        "slot": "7",
        "type": "t_uint256"
      },
      {
        "astId": 2558,
        "contract": "contracts/MultiFaucet.sol:MultiFaucet",
        "label": "NFT_COUNT",
        "offset": 0,
        "slot": "8",
        "type": "t_uint256"
      },
      {
        "astId": 2562,
        "contract": "contracts/MultiFaucet.sol:MultiFaucet",
        "label": "ETH_AMOUNT",
        "offset": 0,
        "slot": "9",
        "type": "t_uint256"
      },
      {
        "astId": 2566,
        "contract": "contracts/MultiFaucet.sol:MultiFaucet",
        "label": "DAI_AMOUNT",
        "offset": 0,
        "slot": "10",
        "type": "t_uint256"
      },
      {
        "astId": 2570,
        "contract": "contracts/MultiFaucet.sol:MultiFaucet",
        "label": "WETH_AMOUNT",
        "offset": 0,
        "slot": "11",
        "type": "t_uint256"
      },
      {
        "astId": 2575,
        "contract": "contracts/MultiFaucet.sol:MultiFaucet",
        "label": "approvedOperators",
        "offset": 0,
        "slot": "12",
        "type": "t_mapping(t_address,t_bool)"
      },
      {
        "astId": 2580,
        "contract": "contracts/MultiFaucet.sol:MultiFaucet",
        "label": "superOperators",
        "offset": 0,
        "slot": "13",
        "type": "t_mapping(t_address,t_bool)"
      }
    ],
    "types": {
      "t_address": {
        "encoding": "inplace",
        "label": "address",
        "numberOfBytes": "20"
      },
      "t_bool": {
        "encoding": "inplace",
        "label": "bool",
        "numberOfBytes": "1"
      },
      "t_mapping(t_address,t_bool)": {
        "encoding": "mapping",
        "key": "t_address",
        "label": "mapping(address => bool)",
        "numberOfBytes": "32",
        "value": "t_bool"
      },
      "t_mapping(t_address,t_mapping(t_address,t_bool))": {
        "encoding": "mapping",
        "key": "t_address",
        "label": "mapping(address => mapping(address => bool))",
        "numberOfBytes": "32",
        "value": "t_mapping(t_address,t_bool)"
      },
      "t_mapping(t_address,t_uint256)": {
        "encoding": "mapping",
        "key": "t_address",
        "label": "mapping(address => uint256)",
        "numberOfBytes": "32",
        "value": "t_uint256"
      },
      "t_mapping(t_uint256,t_address)": {
        "encoding": "mapping",
        "key": "t_uint256",
        "label": "mapping(uint256 => address)",
        "numberOfBytes": "32",
        "value": "t_address"
      },
      "t_string_storage": {
        "encoding": "bytes",
        "label": "string",
        "numberOfBytes": "32"
      },
      "t_uint256": {
        "encoding": "inplace",
        "label": "uint256",
        "numberOfBytes": "32"
      }
    }
  }
}